{
  "_format": "hh-sol-artifact-1",
  "contractName": "EscrowFactory",
  "sourceName": "contracts/EscrowFactory.sol",
  "abi": [
    {
      "inputs": [],
      "stateMutability": "nonpayable",
      "type": "constructor"
    },
    {
      "anonymous": false,
      "inputs": [
        {
          "indexed": false,
          "internalType": "address",
          "name": "previousAdmin",
          "type": "address"
        },
        {
          "indexed": false,
          "internalType": "address",
          "name": "newAdmin",
          "type": "address"
        }
      ],
      "name": "AdminChanged",
      "type": "event"
    },
    {
      "anonymous": false,
      "inputs": [
        {
          "indexed": true,
          "internalType": "address",
          "name": "beacon",
          "type": "address"
        }
      ],
      "name": "BeaconUpgraded",
      "type": "event"
    },
    {
      "anonymous": false,
      "inputs": [
        {
          "indexed": false,
          "internalType": "uint8",
          "name": "version",
          "type": "uint8"
        }
      ],
      "name": "Initialized",
      "type": "event"
    },
    {
      "anonymous": false,
      "inputs": [
        {
          "indexed": false,
          "internalType": "address",
          "name": "token",
          "type": "address"
        },
        {
          "indexed": false,
          "internalType": "address",
          "name": "escrow",
          "type": "address"
        }
      ],
      "name": "Launched",
      "type": "event"
    },
    {
      "anonymous": false,
      "inputs": [
        {
          "indexed": false,
          "internalType": "address",
          "name": "token",
          "type": "address"
        },
        {
          "indexed": false,
          "internalType": "address",
          "name": "escrow",
          "type": "address"
        },
        {
          "indexed": false,
          "internalType": "string",
          "name": "jobRequesterId",
          "type": "string"
        }
      ],
      "name": "LaunchedV2",
      "type": "event"
    },
    {
      "anonymous": false,
      "inputs": [
        {
          "indexed": true,
          "internalType": "address",
          "name": "previousOwner",
          "type": "address"
        },
        {
          "indexed": true,
          "internalType": "address",
          "name": "newOwner",
          "type": "address"
        }
      ],
      "name": "OwnershipTransferred",
      "type": "event"
    },
    {
      "anonymous": false,
      "inputs": [
        {
          "indexed": true,
          "internalType": "uint256",
          "name": "minimumStake",
          "type": "uint256"
        }
      ],
      "name": "SetMinumumStake",
      "type": "event"
    },
    {
      "anonymous": false,
      "inputs": [
        {
          "indexed": true,
          "internalType": "address",
          "name": "stakingAddress",
          "type": "address"
        }
      ],
      "name": "SetStakingAddress",
      "type": "event"
    },
    {
      "anonymous": false,
      "inputs": [
        {
          "indexed": true,
          "internalType": "address",
          "name": "implementation",
          "type": "address"
        }
      ],
      "name": "Upgraded",
      "type": "event"
    },
    {
      "inputs": [],
      "name": "admin",
      "outputs": [
        {
          "internalType": "address",
          "name": "",
          "type": "address"
        }
      ],
      "stateMutability": "view",
      "type": "function"
    },
    {
      "inputs": [],
      "name": "counter",
      "outputs": [
        {
          "internalType": "uint256",
          "name": "",
          "type": "uint256"
        }
      ],
      "stateMutability": "view",
      "type": "function"
    },
    {
      "inputs": [
        {
          "internalType": "address",
          "name": "token",
          "type": "address"
        },
        {
          "internalType": "string",
          "name": "jobRequesterId",
          "type": "string"
        }
      ],
      "name": "createEscrow",
      "outputs": [
        {
          "internalType": "address",
          "name": "",
          "type": "address"
        }
      ],
      "stateMutability": "nonpayable",
      "type": "function"
    },
    {
      "inputs": [
        {
          "internalType": "address",
          "name": "",
          "type": "address"
        }
      ],
      "name": "escrowCounters",
      "outputs": [
        {
          "internalType": "uint256",
          "name": "",
          "type": "uint256"
        }
      ],
      "stateMutability": "view",
      "type": "function"
    },
    {
      "inputs": [
        {
          "internalType": "address",
          "name": "_address",
          "type": "address"
        }
      ],
      "name": "hasEscrow",
      "outputs": [
        {
          "internalType": "bool",
          "name": "",
          "type": "bool"
        }
      ],
      "stateMutability": "view",
      "type": "function"
    },
    {
      "inputs": [
        {
          "internalType": "address",
          "name": "_staking",
          "type": "address"
        },
        {
          "internalType": "uint256",
          "name": "_minimumStake",
          "type": "uint256"
        }
      ],
      "name": "initialize",
      "outputs": [],
      "stateMutability": "payable",
      "type": "function"
    },
    {
      "inputs": [],
      "name": "lastEscrow",
      "outputs": [
        {
          "internalType": "address",
          "name": "",
          "type": "address"
        }
      ],
      "stateMutability": "view",
      "type": "function"
    },
    {
      "inputs": [],
      "name": "minimumStake",
      "outputs": [
        {
          "internalType": "uint256",
          "name": "",
          "type": "uint256"
        }
      ],
      "stateMutability": "view",
      "type": "function"
    },
    {
      "inputs": [],
      "name": "owner",
      "outputs": [
        {
          "internalType": "address",
          "name": "",
          "type": "address"
        }
      ],
      "stateMutability": "view",
      "type": "function"
    },
    {
      "inputs": [],
      "name": "proxiableUUID",
      "outputs": [
        {
          "internalType": "bytes32",
          "name": "",
          "type": "bytes32"
        }
      ],
      "stateMutability": "view",
      "type": "function"
    },
    {
      "inputs": [],
      "name": "renounceOwnership",
      "outputs": [],
      "stateMutability": "nonpayable",
      "type": "function"
    },
    {
      "inputs": [
        {
          "internalType": "address",
          "name": "_admin",
          "type": "address"
        }
      ],
      "name": "setAdmin",
      "outputs": [],
      "stateMutability": "nonpayable",
      "type": "function"
    },
    {
      "inputs": [
        {
          "internalType": "uint256",
          "name": "_minimumStake",
          "type": "uint256"
        }
      ],
      "name": "setMinimumStake",
      "outputs": [],
      "stateMutability": "nonpayable",
      "type": "function"
    },
    {
      "inputs": [
        {
          "internalType": "address",
          "name": "_stakingAddress",
          "type": "address"
        }
      ],
      "name": "setStakingAddress",
      "outputs": [],
      "stateMutability": "nonpayable",
      "type": "function"
    },
    {
      "inputs": [],
      "name": "staking",
      "outputs": [
        {
          "internalType": "address",
          "name": "",
          "type": "address"
        }
      ],
      "stateMutability": "view",
      "type": "function"
    },
    {
      "inputs": [
        {
          "internalType": "address",
          "name": "newOwner",
          "type": "address"
        }
      ],
      "name": "transferOwnership",
      "outputs": [],
      "stateMutability": "nonpayable",
      "type": "function"
    },
    {
      "inputs": [
        {
          "internalType": "address",
          "name": "newImplementation",
          "type": "address"
        }
      ],
      "name": "upgradeTo",
      "outputs": [],
      "stateMutability": "nonpayable",
      "type": "function"
    },
    {
      "inputs": [
        {
          "internalType": "address",
          "name": "newImplementation",
          "type": "address"
        },
        {
          "internalType": "bytes",
          "name": "data",
          "type": "bytes"
        }
      ],
      "name": "upgradeToAndCall",
      "outputs": [],
      "stateMutability": "payable",
      "type": "function"
    }
  ],
  "bytecode": "0x60a080604052346100dc57306080526000549060ff8260081c1661008a575060ff8082160361004f575b6040516140a890816100e2823960805181818161054b0152818161064c0152610b4e0152f35b60ff90811916176000557f7f26b83ff96e1f2b6a682f133852f6798a09c465da95921460cefb3847402498602060405160ff8152a138610029565b62461bcd60e51b815260206004820152602760248201527f496e697469616c697a61626c653a20636f6e747261637420697320696e697469604482015266616c697a696e6760c81b6064820152608490fd5b600080fdfe604060808152600490813610156200001657600080fd5b600091823560e01c908163233e99031462000db25781633659cfe61462000b225781633cc3e58d1462000af75781633f407b4f14620008cc5781634cf088d914620008a15781634f1ef28614620005f557816352d1902d146200053357816358d276f714620004f557816361bc221a14620004d4578163704b6c0214620004a2578163715018a614620004525781638da5cb5b1462000427578163979530e614620003eb578163cd6dc687146200021e578163ec5ffac214620001fd578163f2fde38b146200016157508063f4e0d9ac14620001295763f851a44014620000fc57600080fd5b34620001255781600319360112620001255760ce5490516001600160a01b039091168152602090f35b5080fd5b82346200015e5760203660031901126200015e576200015b6200014b62000ddd565b6200015562000ff7565b62001131565b80f35b80fd5b905034620001f9576020366003190112620001f9576200018062000ddd565b916200018b62000ff7565b6001600160a01b03831615620001a757836200015b84620010f9565b906020608492519162461bcd60e51b8352820152602660248201527f4f776e61626c653a206e6577206f776e657220697320746865207a65726f206160448201526564647265737360d01b6064820152fd5b8280fd5b505034620001255781600319360112620001255760209060cd549051908152f35b905081600319360112620001f9576200023662000ddd565b83549160ff8360081c161592838094620003dd575b8015620003c4575b156200036a5760ff19811660011786558362000358575b5060ff855460081c1615620003015750620002aa906200028a33620010f9565b620001556200029862000f49565b6001600160a01b038316151562000fc4565b620002b760243562001050565b620002c233620010c3565b620002cb575080f35b60207f7f26b83ff96e1f2b6a682f133852f6798a09c465da95921460cefb38474024989161ff001984541684555160018152a180f35b608490602085519162461bcd60e51b8352820152602b60248201527f496e697469616c697a61626c653a20636f6e7472616374206973206e6f74206960448201526a6e697469616c697a696e6760a81b6064820152fd5b61ffff1916610101178555386200026a565b845162461bcd60e51b8152602081840152602e60248201527f496e697469616c697a61626c653a20636f6e747261637420697320616c72656160448201526d191e481a5b9a5d1a585b1a5e995960921b6064820152608490fd5b50303b158015620002535750600160ff82161462000253565b50600160ff8216106200024b565b50503462000125576020366003190112620001255760209181906001600160a01b036200041762000ddd565b16815260ca845220549051908152f35b505034620001255781600319360112620001255760335490516001600160a01b039091168152602090f35b83346200015e57806003193601126200015e576200046f62000ff7565b603380546001600160a01b0319811690915581906001600160a01b031660008051602062003ffc8339815191528280a380f35b83346200015e5760203660031901126200015e576200015b620004c462000ddd565b620004ce62000ff7565b620010c3565b505034620001255781600319360112620001255760209060c9549051908152f35b50503462000125576020366003190112620001255760209181906001600160a01b036200052162000ddd565b16815260ca8452205415159051908152f35b905082346200015e57806003193601126200015e57507f00000000000000000000000000000000000000000000000000000000000000006001600160a01b0316300362000592576020825160008051602062003fdc8339815191528152f35b6020608492519162461bcd60e51b8352820152603860248201527f555550535570677261646561626c653a206d757374206e6f742062652063616c6044820152771b1959081d1a1c9bdd59da0819195b1959d85d1958d85b1b60421b6064820152fd5b91809150600319360112620001f9576200060e62000ddd565b906024356001600160401b0381116200089d57366023820112156200089d5762000642903690602481870135910162000e6b565b6001600160a01b037f000000000000000000000000000000000000000000000000000000000000000081169291906200067e3085141562000ea7565b6200069e60008051602062003fdc83398151915294828654161462000ef8565b620006a862000ff7565b60008051602062003f9c8339815191525460ff1615620006d257505050506200015b915062001181565b82516352d1902d60e01b81526020959394918416919086818981865afa89918162000864575b506200074757855162461bcd60e51b8152808901889052602e60248201526000805160206200407c83398151915260448201526d6f6e206973206e6f74205555505360901b6064820152608490fd5b9691929594939603620008205750620007608562001181565b6000805160206200401c8339815191528680a282511580159062000817575b6200078c575b5050505080f35b62000801938580835195620007a18762000df9565b602787526000805160206200405c83398151915286880152660819985a5b195960ca1b858801528581519101845af4913d156200080c573d620007f2620007e88262000e4f565b9251928362000e2b565b81528681943d92013e62001213565b503880808062000785565b506060925062001213565b5060016200077f565b825162461bcd60e51b8152908101849052602960248201526000805160206200403c8339815191526044820152681a58589b195555525160ba1b6064820152608490fd5b9091508781813d831162000895575b6200087f818362000e2b565b810103126200089157519038620006f8565b8980fd5b503d62000873565b8480fd5b505034620001255781600319360112620001255760cc5490516001600160a01b039091168152602090f35b8383346200012557806003193601126200012557620008ea62000ddd565b926001600160401b036024803582811162000af3573660238201121562000af3576200091f9036908381870135910162000e6b565b9260018060a01b03908160cc5416978651809963014f6b1960e41b82523384830152818660209c8d935afa90811562000ae957899162000ab2575b5060cd541162000a7b578260ce541694620009816200097862000f49565b87151562000fc4565b875191612d0f8084019283118484101762000a6957918584926080946200128d85391697888252338d8301528a8201526283d600606082015203019088f092831562000a5f5760c95491600019831462000a4e57505060010160c9819055911680865260ca8752948490205560cb80546001600160a01b03191685179055825190815280850184905260608184018190527fde4a6895269de599430e1230956361cbe11b52ad149311a97123c73666c5214192829162000a45919083019062000f82565b0390a151908152f35b634e487b7160e01b89526011905287fd5b86513d89823e3d90fd5b634e487b7160e01b8b5260418552868bfd5b865162461bcd60e51b81528083018a905260128186015271496e73756666696369656e74207374616b6560701b6044820152606490fd5b90508981813d831162000ae1575b62000acc818362000e2b565b8101031262000add57518a6200095a565b8880fd5b503d62000ac0565b88513d8b823e3d90fd5b8580fd5b505034620001255781600319360112620001255760cb5490516001600160a01b039091168152602090f35b91905034620001f95760208060031936011262000dae5762000b4362000ddd565b916001600160a01b037f0000000000000000000000000000000000000000000000000000000000000000811662000b7d3082141562000ea7565b62000b9d60008051602062003fdc83398151915291838354161462000ef8565b62000ba762000ff7565b8251848101929091906001600160401b0384118385101762000d9b5783855288835260008051602062003f9c8339815191525460ff161562000bf5575050505050506200015b915062001181565b869293949596169085516352d1902d60e01b815287818a81865afa8a918162000d62575b5062000c6857865162461bcd60e51b8152808a01899052602e60248201526000805160206200407c83398151915260448201526d6f6e206973206e6f74205555505360901b6064820152608490fd5b97919293969594970362000d1e575062000c828262001181565b6000805160206200401c8339815191528780a28584511580159062000d16575b62000cb1575b50505050505080f35b8062000d099684519662000cc58862000df9565b602788526000805160206200405c83398151915287890152660819985a5b195960ca1b868901525190845af4913d156200080c573d620007f2620007e88262000e4f565b5038808080808562000ca8565b508062000ca2565b835162461bcd60e51b8152908101859052602960248201526000805160206200403c8339815191526044820152681a58589b195555525160ba1b6064820152608490fd5b9091508881813d831162000d93575b62000d7d818362000e2b565b8101031262000d8f5751903862000c19565b8a80fd5b503d62000d71565b634e487b7160e01b895260418852602489fd5b8380fd5b8390346200012557602036600319011262000125576200015b9062000dd662000ff7565b3562001050565b600435906001600160a01b038216820362000df457565b600080fd5b606081019081106001600160401b0382111762000e1557604052565b634e487b7160e01b600052604160045260246000fd5b601f909101601f19168101906001600160401b0382119082101762000e1557604052565b6001600160401b03811162000e1557601f01601f191660200190565b92919262000e798262000e4f565b9162000e89604051938462000e2b565b82948184528183011162000df4578281602093846000960137010152565b1562000eaf57565b60405162461bcd60e51b815260206004820152602c602482015260008051602062003fbc83398151915260448201526b19195b1959d85d1958d85b1b60a21b6064820152608490fd5b1562000f0057565b60405162461bcd60e51b815260206004820152602c602482015260008051602062003fbc83398151915260448201526b6163746976652070726f787960a01b6064820152608490fd5b60408051919082016001600160401b0381118382101762000e1557604052600c82526b5a65726f204164647265737360a01b6020830152565b919082519283825260005b84811062000faf575050826000602080949584010152601f8019910116010190565b60208183018101518483018201520162000f8d565b1562000fcd5750565b60405162461bcd60e51b81526020600482015290819062000ff390602483019062000f82565b0390fd5b6033546001600160a01b031633036200100c57565b606460405162461bcd60e51b815260206004820152602060248201527f4f776e61626c653a2063616c6c6572206973206e6f7420746865206f776e65726044820152fd5b801562001082578060cd557f4ae07ff10245d5c3330b9a15e8c6b8644ea81b656ff7d5428edda75e77d061cd600080a2565b60405162461bcd60e51b815260206004820152601960248201527826bab9ba1031329030903837b9b4ba34bb3290373ab6b132b960391b6044820152606490fd5b6001600160a01b0316620010e3620010da62000f49565b82151562000fc4565b60ce80546001600160a01b031916919091179055565b603380546001600160a01b039283166001600160a01b03198216811790925590911660008051602062003ffc833981519152600080a3565b6001600160a01b031662001148620010da62000f49565b60cc80546001600160a01b031916821790557fd6912e103d1553f15e77ffc98e99da32c9ce0d21d8be27cbb38437b1afe30928600080a2565b803b15620011b85760008051602062003fdc83398151915280546001600160a01b0319166001600160a01b03909216919091179055565b60405162461bcd60e51b815260206004820152602d60248201527f455243313936373a206e657720696d706c656d656e746174696f6e206973206e60448201526c1bdd08184818dbdb9d1c9858dd609a1b6064820152608490fd5b9192901562001278575081511562001229575090565b3b15620012335790565b60405162461bcd60e51b815260206004820152601d60248201527f416464726573733a2063616c6c20746f206e6f6e2d636f6e74726163740000006044820152606490fd5b82519091501562000fcd5750805190602001fdfe610100346200021c57601f62002d0f38819003918201601f19168301916001600160401b0383118484101762000221578084926080946040528339810103126200021c576200004e8162000237565b906200005d6020820162000237565b60606200006d6040840162000237565b920151600160005592620000c96001600160a01b036200009b620000906200024c565b828616151562000285565b620000b4620000a96200024c565b828716151562000285565b620000be6200024c565b908316151562000285565b8315620001e75760e05260805260a0523360c05260ff1960015416600155428101809111620001d157600a55604051612a1f9081620002f0823960805181818161088301528181610b95015281816111b3015281816114da01528181612104015281816126910152612891015260a051818181610201015281816102d9015281816108d50152818161099301528181611169015281816112590152818161136201528181611407015261172a015260c05181610ed1015260e05181818161018a0152818161048501528181610bb60152818161144301528181611ca801528181611d1801528181611d8901528181611eb20152818161214b0152818161264f01526128b20152f35b634e487b7160e01b600052601160045260246000fd5b60405162461bcd60e51b815260206004820152600d60248201526c04475726174696f6e206973203609c1b6044820152606490fd5b600080fd5b634e487b7160e01b600052604160045260246000fd5b51906001600160a01b03821682036200021c57565b60408051919082016001600160401b038111838210176200022157604052600c82526b5a65726f206164647265737360a01b6020830152565b156200028e5750565b6040519062461bcd60e51b82528160208060048301528251908160248401526000935b828510620002d5575050604492506000838284010152601f80199101168101030190fd5b8481018201518686016044015293810193859350620002b156fe608080604052600436101561001357600080fd5b60003560e01c9081630ae9dfad1461221b575080630f46c9aa1461218d5780630fb5a6b41461216f57806312065fe01461213357806316eebd1e146120ee578063200d2ed2146120c457806331fc48f014611666578063337f3f32146115d85780633aecd0e3146115ad57806343aba9c21461151f578063509c5df61461150157806351cff8d9146113c1578063522e11771461133757806355bf1d6a146112a8578063697e4b87146111ff57806378c62420146111db57806381972d001461114b5780639753e432146111225780639c48b10214611094578063a05220ad1461106b578063a5aa542e1461104d578063b8deafd814610fbf578063ba5fed3414610f00578063bdd1daaa14610ebb578063c479bbf814610e97578063cd99f2301461093b578063ea8a1af0146108aa578063f56679cf14610230578063f851a440146101eb578063fad844c1146101be5763fc0c546a1461017457600080fd5b346101b95760003660031901126101b9576040517f00000000000000000000000000000000000000000000000000000000000000006001600160a01b03168152602090f35b600080fd5b346101b95760003660031901126101b95760015460405160089190911c6001600160a01b03168152602090f35b346101b95760003660031901126101b9576040517f00000000000000000000000000000000000000000000000000000000000000006001600160a01b03168152602090f35b346101b9576101003660031901126101b95761024a61234e565b6024356001600160a01b0380821682036101b9576044359080821682036101b95760ff60643516606435036101b95760ff60843516608435036101b95760ff60a4351660a435036101b95760c4356001600160401b0381116101b9576102b4903690600401612312565b60e4356001600160401b0381116101b9576102d3903690600401612312565b969093807f0000000000000000000000000000000000000000000000000000000000000000163314801561087f575b61030b90612364565b610318600a54421061239f565b8082161561083e57808716156107fe57808616156107bf57606460ff61034c60a43561034760843585356126fd565b6126fd565b161161077f5760015460ff811660078110156107695761073557610100600160a81b031916600883901b610100600160a81b031617600155600280546001600160a01b0319168883161790556003805460843560a81b60ff60a81b1660643560a01b60ff60a01b166001600160b81b031990921689851617919091171760a43560b01b60ff60b01b161790556001600160401b038311610652576103f160045461223c565b601f81116106e6575b50826000601f821160011461067357600091610668575b508360011b906000198560031b1c1916176004555b6001600160401b0388116106525761043f60055461223c565b601f811161060d575b50876000601f821160011461058257600091610577575b508860011b906000198a60031b1c1916176005555b600160ff19815416176001556104a97f00000000000000000000000000000000000000000000000000000000000000006124c6565b9586600c5586156105435781602098816105247ff3bcd83b3ad174382a0f0ee29dcba2eee468d36f13021623af7de1539e268074997f27b2dc149fd3048bc27eadaaf660801a04305c72845da74066a17b72d6c5bb669d6105176040519b8c9b60a08d5260a08d01916124a5565b918a83038f8c01526124a5565b951660408701521660608501521660808301520390a1604051908152a1005b60405162461bcd60e51b815260206004820152600c60248201526b5a65726f2062616c616e636560a01b6044820152606490fd5b90508501358961045f565b600560009081527f036b6384b5eca791c62761152d0c79bb0604c104a5fb6f4eb0703f3154bb3db092508a90601f1982169060205b8282106105f0575050106105d6575b5050600188811b01600555610474565b86013560001960038b901b60f8161c1916905588806105c6565b80929350600185968293968d0135815501950193018c92916105b7565b60056000526020600020601f8a0160051c810160208b1061064b575b601f830160051c8201811061063f575050610448565b60008155600101610629565b5080610629565b634e487b7160e01b600052604160045260246000fd5b905084013589610411565b600460009081526000805160206129f383398151915292505b601f19861681106106ce575084601f198116106106b4575b5050600183811b01600455610426565b850135600019600386901b60f8161c1916905588806106a4565b9091602060018192858a01358155019301910161068c565b60046000526000805160206129f3833981519152601f850160051c81016020861061072e575b601f830160051c820181106107225750506103fa565b6000815560010161070c565b508061070c565b60405162461bcd60e51b815260206004820152600c60248201526b57726f6e672073746174757360a01b6044820152606490fd5b634e487b7160e01b600052602160045260246000fd5b60405162461bcd60e51b815260206004820152601860248201527750657263656e74616765206f7574206f6620626f756e647360401b6044820152606490fd5b60405162461bcd60e51b8152602060048201526017602482015276496e76616c69642065786368616e6765206f7261636c6560481b6044820152606490fd5b60405162461bcd60e51b8152602060048201526018602482015277496e76616c6964207265636f7264696e67206f7261636c6560401b6044820152606490fd5b60405162461bcd60e51b8152602060048201526019602482015278496e76616c69642072657075746174696f6e206f7261636c6560381b6044820152606490fd5b50337f0000000000000000000000000000000000000000000000000000000000000000821614610302565b346101b95760003660031901126101b9576108c8600a54421061239f565b61090560018060a01b03807f000000000000000000000000000000000000000000000000000000000000000016331490811561092a575b50612364565b60ff6001541660078110156107695760066109209114612557565b610928612816565b005b905060015460081c163314826108ff565b346101b95760603660031901126101b9576004356001600160401b0381116101b95761096b903690600401612312565b906024356001600160401b0381116101b95761098b903690600401612312565b9092909190337f00000000000000000000000000000000000000000000000000000000000000006001600160a01b0316148015610e83575b6109cc90612364565b6109d9600a54421061239f565b60ff600154166007811015806107695760018214908115610e76575b8115610e63575b50610a079150612557565b604435610df5575b610a1e600c54600d5490612484565b60443511610db0576001600160401b03811161065257610a3f60065461223c565b601f8111610d61575b50806000601f8211600114610cee57600091610ce3575b508160011b906000198360031b1c1916176006555b6001600160401b03831161065257610a8d60075461223c565b601f8111610c7e575b50600093601f8411600114610c0157610b1090846000805160206129538339815191529596600091610bf6575b508660011b906000198860031b1c1916176007555b610ae6604435600d54612427565b9586600d55610b026040519586956040875260408701916124a5565b9184830360208601526124a5565b0390a160ff60015416600781101561076957600614610b2b57005b610b3790600c54612484565b80610b6a575b50600c5415610b4857005b600560ff196001541617600155600080516020612973833981519152600080a1005b7f4b1258c7a3c571dbdb0bf09839743cf12ad7e511407472fe5620a13043e67eb990602090610be3817f00000000000000000000000000000000000000000000000000000000000000007f00000000000000000000000000000000000000000000000000000000000000006001600160a01b0316612734565b604051908152a1600d54600c5580610b3d565b905081013587610ac3565b6007600052602060002060005b601f1986168110610c66575090610b1091859660008051602061295383398151915296601f19811610610c4c575b5050600186811b01600755610ad8565b820135600019600389901b60f8161c191690558680610c3c565b82870135825560209687019660019092019101610c0e565b60076000527fa66cc928b5edb82af9bd49922954155ab7b0942694bea4ce44661d9a8736c688601f850160051c81019160208610610cd9575b601f0160051c01905b818110610ccd5750610a96565b60008155600101610cc0565b9091508190610cb7565b905082013585610a5f565b600660009081526000805160206129d383398151915292505b601f1984168110610d49575082601f19811610610d2f575b5050600181811b01600655610a74565b830135600019600384901b60f8161c191690558480610d1f565b90916020600181928588013581550193019101610d07565b60066000526000805160206129d3833981519152601f830160051c810160208410610da9575b601f830160051c82018110610d9d575050610a48565b60008155600101610d87565b5080610d87565b60405162461bcd60e51b815260206004820152601d60248201527f496e73756666696369656e7420756e72657365727665642066756e64730000006044820152606490fd5b8015610e325782610a0f5760405162461bcd60e51b815260206004820152600a60248201526908adae0e8f240d0c2e6d60b31b6044820152606490fd5b60405162461bcd60e51b8152602060048201526009602482015268115b5c1d1e4815549360ba1b6044820152606490fd5b9050610769576006610a079114866109fc565b50506002811460006109f5565b506002546001600160a01b031633146109c3565b346101b95760003660031901126101b957602060ff60035460a01c16604051908152f35b346101b95760003660031901126101b9576040517f00000000000000000000000000000000000000000000000000000000000000006001600160a01b03168152602090f35b346101b95760003660031901126101b957604051600090600654610f238161223c565b808352602091600190818116908115610f9f5750600114610f5f575b610f5b84610f4f81880382612276565b60405191829182612299565b0390f35b919350600660005283600020916000925b828410610f8c5750505081610f5b93610f4f9282010193610f3f565b8054858501870152928501928101610f70565b60ff1916858501525050151560051b8201019150610f4f81610f5b610f3f565b346101b95760003660031901126101b957604051600090600754610fe28161223c565b808352602091600190818116908115610f9f575060011461100d57610f5b84610f4f81880382612276565b919350600760005283600020916000925b82841061103a5750505081610f5b93610f4f9282010193610f3f565b805485850187015292850192810161101e565b346101b95760003660031901126101b9576020600c54604051908152f35b346101b95760003660031901126101b9576003546040516001600160a01b039091168152602090f35b346101b95760003660031901126101b9576040516000906004546110b78161223c565b808352602091600190818116908115610f9f57506001146110e257610f5b84610f4f81880382612276565b919350600460005283600020916000925b82841061110f5750505081610f5b93610f4f9282010193610f3f565b80548585018701529285019281016110f3565b346101b95760003660031901126101b9576002546040516001600160a01b039091168152602090f35b346101b95760003660031901126101b95761119860018060a01b03807f00000000000000000000000000000000000000000000000000000000000000001633149081156111af5750612364565b6111a0612711565b6111a86125d0565b6001600055005b90507f0000000000000000000000000000000000000000000000000000000000000000163314826108ff565b346101b95760003660031901126101b957602060ff60035460a81c16604051908152f35b346101b95760403660031901126101b9576001600160401b036004358181116101b957611230903690600401612312565b50506024359081116101b95761124a903690600401612312565b505061128860018060a01b03807f000000000000000000000000000000000000000000000000000000000000000016331490811561129a5750612364565b611295600a54421061239f565b612594565b9050600254163314826108ff565b346101b95760c03660031901126101b9576001600160401b036004358181116101b9576112d99036906004016122e2565b50506024358181116101b9576112f39036906004016122e2565b50506044358181116101b95761130d903690600401612312565b50506064359081116101b957611327903690600401612312565b505061133161233f565b50612594565b346101b95760003660031901126101b957611355600a54421061239f565b61139160018060a01b03807f000000000000000000000000000000000000000000000000000000000000000016331490811561092a5750612364565b60ff6001541660078110156107695780600361092092149081156113b6575b50612557565b6002915014826113b0565b346101b95760203660031901126101b9577f884edad9ce6fa2440d8a54cc123490eb96d2768479d49ff9c7366125a94243646113fb61234e565b6001600160a01b0390337f000000000000000000000000000000000000000000000000000000000000000083161480156114d6575b61143990612364565b611441612711565b7f000000000000000000000000000000000000000000000000000000000000000082821692811683146000146114c2576114946114806114a9926124c6565b600c549061148f8282116123f0565b612484565b80935b6114a28215156123f0565b3390612734565b6114b86040519283928361253c565b0390a16001600055005b506114a96114cf826124c6565b8093611497565b50337f0000000000000000000000000000000000000000000000000000000000000000831614611430565b346101b95760003660031901126101b9576020600d54604051908152f35b346101b95760003660031901126101b9576040516000906008546115428161223c565b808352602091600190818116908115610f9f575060011461156d57610f5b84610f4f81880382612276565b919350600860005283600020916000925b82841061159a5750505081610f5b93610f4f9282010193610f3f565b805485850187015292850192810161157e565b346101b95760203660031901126101b95760206115d06115cb61234e565b6124c6565b604051908152f35b346101b95760003660031901126101b9576040516000906005546115fb8161223c565b808352602091600190818116908115610f9f575060011461162657610f5b84610f4f81880382612276565b919350600560005283600020916000925b8284106116535750505081610f5b93610f4f9282010193610f3f565b8054858501870152928501928101611637565b346101b95760c03660031901126101b9576004356001600160401b0381116101b9576116969036906004016122e2565b6024356001600160401b0381116101b9576116b59036906004016122e2565b9092906044356001600160401b0381116101b9576116d7903690600401612312565b90946064356001600160401b0381116101b9576116f8903690600401612312565b90939092906084356001600160401b0381116101b95761171c903690600401612312565b919061172661233f565b92337f00000000000000000000000000000000000000000000000000000000000000006001600160a01b03161480156120aa575b61176390612364565b611770600a54421061239f565b611778612711565b611781816123d5565b9161178f6040519384612276565b81835236828201116101b95781600092602092838601378301015260208151910120976117bf600c5415156123f0565b88600052600b60205260ff6040600020541661206b57818103612034578115611fff5760648111611fc45783151580611fbb575b15611f855760009160005b818110611f2b5750600d548311611ef35781600381018111611edd5761182660038201612434565b966118346040519889612276565b6003820180895261184490612434565b601f19013660208a013761185a60038301612434565b9a6118686040519c8d612276565b60038301808d5261187890612434565b601f19013660208e0137604051936001600160401b036060860190811190861117610652576060850160405260008552600060208601526000604086015260005b848110611dda57505050509061191193929160ff60035460a01c16611d69575b5060ff60035460a81c16611cf6575b60035460ff8160b01c16611c89575b50505061190681600c54612484565b600c55600d54612484565b600d556001600160401b0382116106525761192d60085461223c565b601f8111611c3a575b50816000601f8211600114611bc557600091611bba575b508260011b906000198460031b1c1916176008555b6001600160401b0384116106525761197b60095461223c565b601f8111611b6b575b50836000601f8211600114611af857600091611aed575b508460011b906000198660031b1c1916176009555b86600052600b6020526040600020600160ff19825416179055600c5415159081611ae4575b506040519560a0870160a088528151809152602060c0890192019060005b818110611ac55750505086810360208801526020808551928381520194019060005b818110611aaf5750505092611a63611a71938796937f1abfcb29bb62c645acec9875fb93011a03ced5c168a43b9ab941e4c7c623d4ef9896159a8b15604089015287830360608901526124a5565b9184830360808601526124a5565b0390a215611a81576111a8612816565b60015460ff8116600781101561076957600603611a9f575b506111a8565b60ff191660021760015580611a99565b8251865260209586019590920191600101611a15565b82516001600160a01b03168452602093840193909201916001016119f3565b905015886119d5565b90508501358961199b565b600960009081526000805160206129b383398151915292505b601f1987168110611b53575085601f19811610611b39575b5050600184811b016009556119b0565b860135600019600387901b60f8161c191690558880611b29565b9091602060018192858b013581550193019101611b11565b60096000526000805160206129b3833981519152601f860160051c810160208710611bb3575b601f830160051c82018110611ba7575050611984565b60008155600101611b91565b5080611b91565b90508801358961194d565b6008600090815260008051602061299383398151915292508490601f198216905b8c828210611c2057505010611c06575b5050600182811b01600855611962565b890135600019600385901b60f8161c191690558880611bf6565b840135855560019094019360209384019387935001611be6565b6008600052600080516020612993833981519152601f840160051c810160208510611c82575b601f830160051c82018110611c76575050611936565b60008155600101611c60565b5080611c60565b604080830151611ced939192611ccd91906001600160a01b03908116907f000000000000000000000000000000000000000000000000000000000000000016612734565b6003546001600160a01b0316611ce3858e612491565b5201519187612491565b528a80806118f7565b600254602082015191926001929091611d3d91906001600160a01b03908116907f000000000000000000000000000000000000000000000000000000000000000016612734565b818060a01b0360025416611d51828d612491565b526020830151611d61828a612491565b5201906118e8565b6001805483519394509092611dae9160081c6001600160a01b03908116907f000000000000000000000000000000000000000000000000000000000000000016612734565b818060a01b03825460081c16611dc4828d612491565b528251611dd1828a612491565b5201908c6118d9565b808b611e71611e698961148f611df186898c61244b565b3561148f600354916064611e0b8260ff8660a01c16612471565b04906064611e308260ff83611e2583838b60a81c16612471565b049760b01c16612471565b0495611e3d838251612427565b8152611e4d856020830151612427565b60208201526040611e618882840151612427565b910152612484565b938492612491565b52611e7d81878661244b565b356001600160a01b03811681036101b9578f92611ed791600194611ea985878060a01b03841692612491565b52848060a01b037f000000000000000000000000000000000000000000000000000000000000000016612734565b016118b9565b634e487b7160e01b600052601160045260246000fd5b60405162461bcd60e51b815260206004820152601060248201526f4e6f7420656e6f7567682066756e647360801b6044820152606490fd5b92611f3784838961244b565b35908115611f5257600191611f4b91612427565b93016117fe565b60405162461bcd60e51b815260206004820152600b60248201526a16995c9bc8185b5bdd5b9d60aa1b6044820152606490fd5b60405162461bcd60e51b815260206004820152600e60248201526d08adae0e8f240eae4d85ed0c2e6d60931b6044820152606490fd5b508515156117f3565b60405162461bcd60e51b8152602060048201526013602482015272546f6f206d616e7920726563697069656e747360681b6044820152606490fd5b60405162461bcd60e51b815260206004820152600d60248201526c456d70747920616d6f756e747360981b6044820152606490fd5b60405162461bcd60e51b815260206004820152600f60248201526e098cadccee8d040dad2e6dac2e8c6d608b1b6044820152606490fd5b60405162461bcd60e51b81526020600482015260176024820152767061796f7574496420616c72656164792065786973747360481b6044820152606490fd5b506001543360089190911c6001600160a01b03161461175a565b346101b95760003660031901126101b95760ff600154166040516007821015610769576020918152f35b346101b95760003660031901126101b9576040517f00000000000000000000000000000000000000000000000000000000000000006001600160a01b03168152602090f35b346101b95760003660031901126101b95760206115d07f00000000000000000000000000000000000000000000000000000000000000006124c6565b346101b95760003660031901126101b9576020600a54604051908152f35b346101b95760003660031901126101b9576040516000906009546121b08161223c565b808352602091600190818116908115610f9f57506001146121db57610f5b84610f4f81880382612276565b919350600960005283600020916000925b8284106122085750505081610f5b93610f4f9282010193610f3f565b80548585018701529285019281016121ec565b346101b95760003660031901126101b95760209060ff60035460b01c168152f35b90600182811c9216801561226c575b602083101461225657565b634e487b7160e01b600052602260045260246000fd5b91607f169161224b565b601f909101601f19168101906001600160401b0382119082101761065257604052565b6020808252825181830181905290939260005b8281106122ce57505060409293506000838284010152601f8019910116010190565b8181018601518482016040015285016122ac565b9181601f840112156101b9578235916001600160401b0383116101b9576020808501948460051b0101116101b957565b9181601f840112156101b9578235916001600160401b0383116101b957602083818601950101116101b957565b60a4359081151582036101b957565b600435906001600160a01b03821682036101b957565b1561236b57565b60405162461bcd60e51b815260206004820152600c60248201526b155b985d5d1a1bdc9a5cd95960a21b6044820152606490fd5b156123a657565b60405162461bcd60e51b8152602060048201526007602482015266115e1c1a5c995960ca1b6044820152606490fd5b6001600160401b03811161065257601f01601f191660200190565b156123f757565b60405162461bcd60e51b81526020600482015260086024820152674e6f2066756e647360c01b6044820152606490fd5b91908201809211611edd57565b6001600160401b0381116106525760051b60200190565b919081101561245b5760051b0190565b634e487b7160e01b600052603260045260246000fd5b81810292918115918404141715611edd57565b91908203918211611edd57565b805182101561245b5760209160051b010190565b908060209392818452848401376000828201840152601f01601f1916010190565b6040516370a0823160e01b815230600482015290602090829060249082906001600160a01b03165afa90811561253057600091612501575090565b90506020813d602011612528575b8161251c60209383612276565b810103126101b9575190565b3d915061250f565b6040513d6000823e3d90fd5b6001600160a01b039091168152602081019190915260400190565b1561255e57565b60405162461bcd60e51b815260206004820152600e60248201526d496e76616c69642073746174757360901b6044820152606490fd5b60405162461bcd60e51b8152602060048201526014602482015273444550524543415445445f5349474e415455524560601b6044820152606490fd5b600c54158015906126e7575b6125e590612557565b60015460ff8116600660ff19809316176001556000907f24793289dcb58fa686016edbde5e8ff0e690d448c5e88589a5c80aa9147610948280a1600a544210156126da5760078110156126c6571561263b575050565b6005600080516020612973833981519152927f0000000000000000000000000000000000000000000000000000000000000000612677816124c6565b8061268b575b5050600154161760015580a1565b6126bf917f0000000000000000000000000000000000000000000000000000000000000000906001600160a01b0316612734565b388061267d565b634e487b7160e01b82526021600452602482fd5b5050506126e5612816565b565b5060ff60015416600781101561076957156125dc565b9060ff8091169116019060ff8211611edd57565b600260005414612722576002600055565b604051633ee5aeb560e01b8152600490fd5b6127af9061276b61275d94604051958691602083019663a9059cbb60e01b88526024840161253c565b03601f198101865285612276565b60018060a01b031692600080938192519082875af13d1561280e573d90612791826123d5565b9161279f6040519384612276565b82523d84602084013e5b846128ef565b9081519182151592836127df575b5050506127c75750565b60249060405190635274afe760e01b82526004820152fd5b81929350906020918101031261280a57602001519081159182150361280757503880806127bd565b80fd5b5080fd5b6060906127a9565b600c548061288b575b5060015460ff811660078110156107695760060361285a5750600560ff196001541617600155600080516020612973833981519152600080a1565b60ff19166004176001557fe06452d00b2b58f14a1fa6d499ea982ff93ea827ae700ea9ba03f4daddc94bc1600080a1565b6128df907f00000000000000000000000000000000000000000000000000000000000000007f00000000000000000000000000000000000000000000000000000000000000006001600160a01b0316612734565b6000600c556000600d553861281f565b90612916575080511561290457805190602001fd5b604051630a12f52160e11b8152600490fd5b81511580612949575b612927575090565b604051639996b31560e01b81526001600160a01b039091166004820152602490fd5b50803b1561291f56feb20e0717219840fd5684a80bec782e8babb56ea224f677561b791a61192605c163b958841f79ab97cb5456da181454b9932c0e15a3b17f1cbd27e2a8bc610437f3f7a9fe364faab93b216da50a3214154f22a0a2b415b23a84c8169e8b636ee36e1540171b6c0c960b71a7020d9f60077f6af931a8bbf590da0223dacf75c7aff652222313e28459528d920b65115c16c04f3efc82aaedc97be59f3f377c0d3f8a35acfbc15ff81a39ae7d344fd709f28e8600b4aa8c65c6b64bfe7fe36bd19ba164736f6c6343000817000a4910fdfa16fed3260ed0e7147f7cc6da11a60208b5b9406d12a635614ffd914346756e6374696f6e206d7573742062652063616c6c6564207468726f75676820360894a13ba1a3210667c828492db98dca3e2076cc3735a920a3ca505d382bbc8be0079c531659141344cd1fd0a4f28419497f9722a3daafe3b4186f6b6457e0bc7cd75a20ee27fd9adebab32041f755214dbc6bffa90cc0225b39da2e5c2d3b45524331393637557067726164653a20756e737570706f727465642070726f78416464726573733a206c6f772d6c6576656c2064656c65676174652063616c6c45524331393637557067726164653a206e657720696d706c656d656e74617469a164736f6c6343000817000a",
  "linkReferences": {},
  "deployedLinkReferences": {}
}